:100000000C9480000C948A000C948A000C948A0052
:100010000C948A000C948A000C948A000C948A0038
:100020000C948A000C948A000C948A000C948A0028
:100030000C948A000C948A000C948A000C948A0018
:100040000C948A000C948A000C948A000C948A0008
:100050000C948A009800B100CA00E300FB00FB008A
:10006000FB00FB00FB00FB00FB00FB00FB00FB00B8
:10007000FB00FB00FB00FB00FB00FB00FB00FB00A8
:10008000FB00FB00FB00FB00FB00FB00FB00FB0098
:10009000FB00FB009800B100CA00E300830173017C
:1000A00073017301800173017301730173017301A3
:1000B00089017301730173017301730186018C015E
:1000C0007301730173017301730173017301730190
:1000D0007301730173017301730173018301730170
:1000E0007301730180017301730173017301730163
:1000F00089017301730173017301730186018C011E
:1001000011241FBECFE5D8E0DEBFCDBF0E946B013A
:100110000C941A040C94000090E0FC01E154F109E5
:10012000E432F10508F067C0E65DFF4F0C9414045B
:10013000413059F42BB381E090E002C0880F991F41
:100140006A95E2F7822B8BBB08952BB381E090E098
:1001500002C0880F991F6A95E2F7809582238BBBB6
:100160000895413059F428B381E090E002C0880F2F
:10017000991F6A95E2F7822B88BB089528B381E026
:1001800090E002C0880F991F6A95E2F7809582235C
:1001900088BB0895413059F425B381E090E002C056
:1001A000880F991F6A95E2F7822B85BB089525B3C6
:1001B00081E090E002C0880F991F6A95E2F7809570
:1001C000822385BB0895413059F422B381E090E049
:1001D00002C0880F991F6A95E2F7822B82BB0895AF
:1001E00022B381E090E002C0880F991F6A95E2F780
:1001F0008095822382BB08958FEF8ABB87BB41E045
:1002000066E084E40E948C0041E067E084E40E94A0
:100210008C0041E064E084E40E948C0041E065E0F1
:1002200084E40E948C00089541E060E081E40E9433
:100230008C0041E062E081E40E948C0041E060E0DB
:1002400082E40E948C0041E062E082E40E948C0023
:10025000089541E061E081E40E948C0041E063E0A8
:1002600081E40E948C0041E061E082E40E948C0005
:1002700041E064E082E40E948C00089541E061E086
:1002800081E40E948C0041E063E081E40E948C00E4
:1002900041E060E082E40E948C0041E062E082E4A0
:1002A0000E948C00089541E060E081E40E948C008F
:1002B00041E062E081E40E948C0041E061E082E480
:1002C0000E948C0041E064E082E40E948C0008956A
:1002D0001BBA18BA089560E875E280E090E00E94C9
:1002E0008F010E94FC000E94B30190E0FC01E254E7
:1002F000F109E233F105B8F7E25BFF4F0C94140407
:100300000E941401F0CF0E942901EDCF0E945301F9
:10031000EACF0E943E01E7CF0E946801E4CF599ADC
:100320002AB128692AB920B5266820BD0E94CC02CE
:1003300020E030E040E051E40E945A039B01AC0110
:1003400060E074E284E799E40E94240220E030E057
:1003500040E85FE30E94B7010E94C7030E94960233
:1003600069B970BD08955F9BFECF8CB10895505858
:10037000BB27AA270E94CF010C9420030E941203DE
:1003800038F00E94190320F039F49F3F19F426F445
:100390000C940F030EF4E095E7FB0C940903E92F8E
:1003A0000E94310358F3BA17620773078407950751
:1003B00020F079F4A6F50C9453030EF4E0950B2E7F
:1003C000BA2FA02D0B01B90190010C01CA01A001A7
:1003D0001124FF27591B99F0593F50F4503E68F102
:1003E0001A16F040A22F232F342F4427585FF3CF43
:1003F000469537952795A795F0405395C9F77EF414
:100400001F16BA0B620B730B840BBAF09150A1F05C
:10041000FF0FBB1F661F771F881FC2F70EC0BA0FE2
:10042000621F731F841F48F4879577956795B7956A
:10043000F7959E3F08F0B0CF9395880F08F0992765
:10044000EE0F9795879508950E9438020C9420032B
:100450000E94190358F00E94120340F029F45F3FF4
:1004600029F00C94090351110C9454030C940F03BC
:100470000E94310368F39923B1F3552391F3951B3F
:10048000550BBB27AA2762177307840738F09F5FB5
:100490005F4F220F331F441FAA1FA9F335D00E2E22
:1004A0003AF0E0E832D091505040E695001CCAF78F
:1004B0002BD0FE2F29D0660F771F881FBB1F261752
:1004C00037074807AB07B0E809F0BB0B802DBF0129
:1004D000FF2793585F4F3AF09E3F510578F00C94F8
:1004E00009030C9454035F3FE4F3983ED4F38695DC
:1004F00077956795B795F7959F5FC9F7880F911D19
:100500009695879597F90895E1E0660F771F881F04
:10051000BB1F621773078407BA0720F0621B730BB7
:10052000840BBA0BEE1F88F7E09508950E949D0298
:100530006894B1110C94540308950E94390388F013
:100540009F5798F0B92F9927B751B0F0E1F0660F97
:10055000771F881F991F1AF0BA95C9F714C0B130D8
:1005600091F00E945303B1E008950C945303672F58
:10057000782F8827B85F39F0B93FCCF38695779507
:100580006795B395D9F73EF49095809570956195F0
:100590007F4F8F4F9F4F0895E89409C097FB3EF41B
:1005A00090958095709561957F4F8F4F9F4F9923C0
:1005B000A9F0F92F96E9BB279395F695879577953E
:1005C0006795B795F111F8CFFAF4BB0F11F460FFFE
:1005D0001BC06F5F7F4F8F4F9F4F16C0882311F056
:1005E00096E911C0772321F09EE8872F762F05C06A
:1005F000662371F096E8862F70E060E02AF09A9505
:10060000660F771F881FDAF7880F9695879597F9F9
:10061000089597F99F6780E870E060E008959FEF84
:1006200080EC089500240A94161617061806090689
:10063000089500240A941216130614060506089558
:10064000092E0394000C11F4882352F0BB0F40F4E0
:10065000BF2B11F460FF04C06F5F7F4F8F4F9F4F20
:10066000089557FD9058440F551F59F05F3F71F0A2
:100670004795880F97FB991F61F09F3F79F0879509
:100680000895121613061406551FF2CF4695F1DF92
:1006900008C0161617061806991FF1CF8695710522
:1006A000610508940895E894BB2766277727CB0156
:1006B00097F908950E946D030C9420030E94120381
:1006C00038F00E94190320F0952311F00C940903CF
:1006D0000C940F0311240C9454030E94310370F303
:1006E000959FC1F3950F50E0551F629FF001729FD7
:1006F000BB27F00DB11D639FAA27F00DB11DAA1FE6
:10070000649F6627B00DA11D661F829F2227B00D32
:10071000A11D621F739FB00DA11D621F839FA00DBD
:10072000611D221F749F3327A00D611D231F849F0D
:10073000600D211D822F762F6A2F11249F57504064
:100740009AF0F1F088234AF0EE0FFF1FBB1F661FDF
:10075000771F881F91505040A9F79E3F510580F0A8
:100760000C9409030C9454035F3FE4F3983ED4F3D4
:10077000869577956795B795F795E7959F5FC1F74C
:10078000FE2B880F911D9695879597F908950E94E5
:100790003903E8F09E37E8F09639B8F49E3848F40B
:1007A000672F782F8827985FF9CF8695779567957B
:1007B00093959539D0F3B62FB1706B0F711D811DD4
:1007C00020F487957795679593950C94EB030C949B
:1007D00006040C945403882371F4772321F0985075
:1007E000872B762F07C0662311F499270DC09051EF
:1007F000862B70E060E02AF09A95660F771F881FBD
:10080000DAF7880F9695879597F908959F3F31F00D
:10081000915020F4879577956795B795880F911D2E
:100820009695879597F90895EE0FFF1F0590F4911F
:08083000E02D0994F894FFCFBC
:00000001FF
